:1000000000308A00D92B00000A108A100A118207DA
:1000100028340C34013406340A108A100A1182077D
:100020000C342034543465346D3470343A34203414
:10003000253431342E3431346634B03443340A3408
:1000400020344A34753461346E342034433465349A
:100050007234713475346534723461342E34003442
:100060003B30840083130008031944280130F80052
:10007000F701F70B3928F80B38284A30F700F70B4F
:100080003F284228800B36280034420EF039F70012
:100090000F30060577048600000006144F2806106E
:1000A00000348610F0308316860083120615000097
:1000B000061400000608060E0F39C20006100000E4
:1000C000061400000608060E0F39C10006100030A5
:1000D000831686008312420EF700F030F70577088A
:1000E0004104F8007808C100C11B52283F1C86104B
:1000F0003F1886140000061100000610400EC100D3
:100100000F30C1054108C200452040080F39C10029
:10011000C20045200034003083168600831286100A
:10012000061106100F30BB0030200130AC002C0847
:10013000033C031CA3280330C20045200530BB004C
:100140003020AC0A97280230C2004520AC012C08B0
:10015000033C031CB4282C080420AD00BF012D086B
:10016000C0005120AC0AA7288A110A12FA2B8E303F
:10017000F7002D08F8002C08F900FA01F808031D13
:10018000CB287908F800F9010830F702F808031DB8
:10019000CB28F701D3280310F81BD228F90DF80D4E
:1001A000F703CB28F81300342C0803199929B80059
:1001B000300803199929B802031CE3287F30B807D7
:1001C00003189929E9288130B802031C99290319D9
:1001D00099293808F700F801F901FA01B7012D084B
:1001E000B600B6172E08B5002F08B4001930B800B5
:1001F0003308B40203180C290130B50203180C2986
:10020000B60203180C29B70203180C29B70AB60A5C
:10021000B50A3308B4073E293208B5020318272966
:100220000130B60203182729B70203182729B70A95
:10023000B60A3208B5073308B407031C3E29B50ACD
:10024000031D3E29B60A031D3E29B70A3E2931087F
:100250008038B60203183D290130B70203183D2942
:10026000B70A31088038B6073208B507031C1B29C6
:10027000B60A031D1B29B70A1B297A14B80B41299A
:100280004C290310B40DB50DB60DB70D0310FA0DC2
:10029000F90DF80DB90DF828391C54290310F80C84
:1002A000F90CFA0CB90C5729F70303199929B91B52
:1002B00080290310B40DB50DB60DB70D3308B40287
:1002C00003186C290130B50203186C29B602031813
:1002D0006C29B702031C8F293208B502031877294D
:1002E0000130B60203187729B702031C8F293108A1
:1002F0008038B602031880290130B702031C8F2909
:10030000FA0A031D8F29F90A031D8F29F80A031D14
:100310008F29F70A03199929F80CF90CFA0C2D0802
:10032000B8003108B806B81F9729F8179D29F813A7
:100330009D29F701F801F901FA018A110A12362CF8
:100340003A080319102AC2003E080319102AC207EE
:100350000318B1297F30C202031C102A0319102A86
:10036000B5298130C2070318102A4208F700F801A6
:10037000F901FA013B08C600C6173C08C5003D0854
:10038000C4001830C200C301441CDE294108FA072A
:10039000031CD029F90A031DD029F80A0319C31731
:1003A0004008F907031CD729F80A0319C3173F08A7
:1003B000BC00BC173C08F8070318C317C30DF80CA2
:1003C000F90CFA0CC60CC50CC40C0310C20BC329E3
:1003D0000130F7070318102AF81BF529C60DFA0D8E
:1003E000F90DF80DF7030319102AC61F062AFA0A99
:1003F000031D062AF90A031D062AF80A031D062A08
:10040000F80CF90CFA0CF70A0319102A3B08C30080
:100410003F08C306C31F0E2AF817142AF813142A1C
:10042000F701F801F901FA0100342D08B400310890
:10043000B406B41F202A03110310AD1B0314532A62
:100440002D08B4003008B5002C08B50203192E2A77
:10045000B41F532A0308013A8300532A3108B50018
:100460002D08B50203193A2AB41F532A0308013A8A
:100470008300532A3208B5002E08B5020319462A14
:10048000B41F532A0308013A8300532A3308B500E6
:100490002F08B5020319522AB41F532A0308013A40
:1004A0008300532A03108A110A12692C3A080C3A65
:1004B0000319612A063A0319692A023A03197F2AA5
:1004C000842ABF010130C00051200230BB0030201F
:1004D0008A2A0130BB000230BC003C0B702A732A10
:1004E0004030BD00742ABD0101303B02BD073D080C
:1004F0008038BE00BF013E08C00051208A2ABF01DB
:100500001030C00051208A2A0130BF003A08C000D4
:1005100051208A2A00343A08B63CBA00FA013B0856
:10052000BE00BB170310BB0CBC0CBD0CFA0CF90CC5
:10053000F80CF70CBA0B922ABE1FA92AF709F80982
:10054000F909FA09F70A0319F80A0319F90A03194C
:10055000FA0A8A110A12162BF701F801F901FA01B9
:10056000C201C301C401C501410840043F043E0467
:100570000319EA2A2030C6000310BA0DBB0DBC0DCA
:10058000BD0DC20DC30DC40DC50D41084502031DAF
:10059000D32A40084402031DD32A3F084302031D07
:1005A000D32A3E084202031CE42A3E08C2023F0846
:1005B000031C3F0FC3024008031C400FC402410844
:1005C000031C410FC5020314F70DF80DF90DFA0DC8
:1005D000C60BBC2A42308400831300340408B200E6
:1005E0003108B40003190D2B3008BD002F08BC00E2
:1005F0002E08BB002D08BA00C101C0012030BF0089
:100600008230BE00A0217A08B0007908AF007808D7
:10061000AE007708AD00B40BF42A3008BD002F08F7
:10062000BC002E08BB002D08BA008B2A7A08B00047
:100630007908AF007808AE007708AD00B01F2D2B09
:10064000B203B216AD09AE09AF09B009AD0A03197C
:10065000AE0A0319AF0A0319B00A3B30B9009A3049
:10066000B800CA30B700B6010A30B4003108031927
:10067000B20A3008BD002F08BC002E08BB002D08B0
:10068000BA003908C1003808C0003708BF00360872
:10069000BE00AC220008AD00840A0008AE00840A47
:1006A0000008AF00840A0008B000FD308407F70896
:1006B000031D6D2B310A340203196D2B3208031907
:1006C0006F2B0F3934020319672B03189F2BB21BB2
:1006D0009F2B321B6F2B20309B2B2030B205B21E7C
:1006E0007D2BB2123108031DB2037708B2002D3002
:1006F000BA0056223208F700B20131083402031D55
:100700008B2B7708B2002E30BA0056223208F70041
:100710002030B20500303030B21E9B2BB2123108AF
:10072000031DB2037708B2002D30BA0056223208FA
:10073000F700B2013030F7077708BA0056223908BF
:10074000BD003808BC003708BB003608BA00C1013C
:10075000C001BF010A30BE00AC227A08B900790896
:10076000B8007808B7007708B600B40B392B8A11A7
:100770000A12832C8E30F7002C08F7022D08F9009E
:100780002E08F800F917F7080319D12B0310F90800
:10079000031DCD2BF8080319D12BF90CF80CF70B1E
:1007A000C62BAD1FD82BF809F909F80A0319F90A65
:1007B0000034840183131F30830519308316990098
:1007C000A630980090308312980083161F149F144F
:1007D0001F159F1107309C008312A001A101A201E7
:1007E000A301A401A501A601A701A801A901AA01CD
:1007F000AB018B280A30BB00302083161F138312F5
:100800001F179F1783169F1383121F1483161F1021
:100810009F101F119F110030F80083121F08C73965
:1008200078049F000A30BB0030201F151F19162CBA
:100830001E08AD01AC00B7207A08A3007908A20019
:100840007808A1007708A0001430BB0030202308EE
:10085000AF002208AE002108AD002008AC00B301B3
:10086000B2017F30B1008630B000D4287708AC00E8
:100870007808AD007908AE007A08AF00BD007908AD
:10088000BC007808BB007708BA00C101C00148303D
:10089000BF008530BE00A0217A08A7007908A60015
:1008A0007808A5007708A400AD012B08AC00B7209C
:1008B0007A08AF007908AE007808AD007708AC0080
:1008C0002308B3002208B2002108B1002008B000BC
:1008D000152A03198F2CAC012C080C20AC0AF70048
:1008E000BA00562208302C02031D6C2C893084007B
:1008F0002708B0002608AF002508AE002408AD0088
:100900000130B100EE2A0D30AD002D080C20AD0AEB
:10091000F700BA0056221F302D02031D852C230834
:10092000AF002208AE002108AD002008AC00BA23B9
:100930007808AB00AA018C1AAA0A2A0BA32C8C1ED9
:100940009F2C1A08A900290BB42C2308AF002208F9
:10095000AE002108AD002008AC00BA237808A8003A
:0C09600028080C1EB12C9900152C630017
:02400E00713F00
:00000001FF
;PIC16F877A
